:100000000C942A000C9447000C9447000C94470071
:100010000C9447000C9447000C9447000C94470044
:100020000C9447000C9447000C9447000C94470034
:100030000C9447000C9447000C9447000C94470024
:100040000C9447000C9447000C9447000C94470014
:100050000C94470011241FBECFE5D4E0DEBFCDBF16
:1000600011E0A0E6B0E0E6EDF5E102C005900D92EA
:10007000A037B107D9F711E0A0E7B1E001C01D92A8
:10008000AB38B107E1F70E94C7020C94E90A0C945F
:10009000000083E397E0FC013197F1F7A898A99855
:1000A00040E345BBAA9A20E034E2F9013197F1F729
:1000B000AA98FC013197F1F7A898A99845BBAA9A8C
:1000C000F9013197F1F7AA98FC013197F1F7A89857
:1000D000A99845BBAA9AF9013197F1F7AA98019717
:1000E000F1F7A898A99880E285BBAA9AC90101975F
:1000F000F1F7AA98089595B39F7095BB25B3982FF3
:10010000907F922B95BBA898A998AA9A20E034E2F8
:10011000F9013197F1F7AA9895B39F7095BB95B304
:100120008295807F982B95BBA898A998AA9AC90117
:100130000197F1F7AA98089583E397E00197F1F703
:1001400088E20E947B0081E00E947B0086E00E94A2
:100150007B008EE00E947B0080E80E947B00089577
:1001600095B39F7095BB25B3982F907F922B95BB2D
:10017000A89AA998AA9A20E034E2F9013197F1F7F8
:10018000AA9895B39F7095BB95B38295807F982B65
:1001900095BBA89AA998AA9AC9010197F1F7AA98BC
:1001A000089580E80E947B000895CF93DF93EC01CF
:1001B00003C00E94B000219688818823D1F7DF9187
:1001C000CF910895823069F0833018F48130A9F41A
:1001D00005C0833049F0843081F40BC0862F8158EC
:1001E00005C0862F815402C0862F8D560E947B0049
:1001F0000895862F8D520E947B0008950F931F93C0
:10020000CF93DF938A01E901882311F0662319F463
:100210000E94D10002C00E94E200C530D10571F4F5
:10022000C80160E177E20E949E0ACB01C0969093DC
:100230007901809378010E94B00005C0C430D105D7
:1002400011F080E016C0C80168EE73E00E949E0ABB
:10025000CB0160937A0190937B016AE070E00E9489
:100260009E0AC09690938901809388010E94B000F5
:1002700081E0C330D10521F0813011F080E016C05B
:10028000C80164E670E00E949E0ACB0160937A0187
:1002900090937B016AE070E00E949E0AC096909362
:1002A0008501809384010E94B00081E0C230D105B5
:1002B00021F0813011F080E016C0C8016AE070E0E2
:1002C0000E949E0ACB0160937A0190937B016AE0C1
:1002D00070E00E949E0AC09690937F0180937E01F9
:1002E0000E94B00081E0C130D10511F0813061F48D
:1002F000C8016AE070E00E949E0AC0969093870150
:10030000809386010E94B00026971CF085E40E942D
:10031000B000DF91CF911F910F91089584B3876F43
:1003200084BB85B3807885BB089598B3907F8F7028
:10033000892B88BB089588B3807F866088BB089529
:1003400088B3807F896088BB089588B38F6088BB3D
:1003500008951EBC9FEF9DBD81E08CBD1BBC9ABD66
:1003600019BC98BD17BC96BD81EA8FBD8DE08EBDCE
:1003700008951ABA1BBA089587B38F6087BB88B3F4
:10038000807F88BB81B3806381BB82B3806382BB83
:10039000089587B38F6087BB88B3807F88BB81B3A4
:1003A000806381BB82B3806382BB84B3876F84BB6D
:1003B00085B3807885BB1ABA1BBA089516B880E257
:1003C00087B980E888B986E886B908958770806221
:1003D00087B9369A349BFECF85B1349A08951BBCF9
:1003E0008ABD19BC68BD0895F8940E94C90116B869
:1003F00080E287B980E888B986E886B91EBC9FEF9D
:100400009DBD81E08CBD1BBC9ABD19BC98BD17BCBD
:1004100096BD81EA8FBD8DE08EBD789408958F9250
:100420009F92AF92BF92CF92DF92EF92FF920F9383
:100430001F93DF93CF93CDB7DEB7FC0180E090E050
:10044000A0E0B0E0808B918BA28BB38B84869586E5
:10045000A686B786C482D582E682F7820087118796
:10046000228733874083518362837383CF01CF9187
:10047000DF911F910F91FF90EF90DF90CF90BF9091
:10048000AF909F908F9008954F925F926F927F925E
:100490008F929F92AF92BF92CF92DF92EF92FF9294
:1004A0000F931F93DF93CF9300D000D0CDB7DEB76B
:1004B0006C0149835A836B837C83FC016481758161
:1004C0008681978120813181428153810E94A905D3
:1004D0004B015C01F60164837583868397832085D5
:1004E0003185428553850E94A9059B01AC01C50158
:1004F000B4010E94D0067B018C01F601608B718BE8
:10050000828B938B448455846684778469817A8155
:100510008B819C81A30192010E9478059B01AC0113
:10052000C801B7010E94D6059B01AC01C301B2010D
:100530000E94A905F601648775878687978760E022
:1005400070E080E89FE3A80197010E9478059B0175
:10055000AC01C501B4010E94D605F6016483758320
:10056000868397830F900F900F900F90CF91DF911C
:100570001F910F91FF90EF90DF90CF90BF90AF90C1
:100580009F908F907F906F905F904F9008952F92E3
:100590003F924F925F926F927F928F929F92AF9213
:1005A000BF92CF92DF92EF92FF920F931F93DF9350
:1005B000CF93CDB7DEB76C970FB6F894DEBF0FBE02
:1005C000CDBF80E090E0A0E0B0E0898B9A8BAB8B50
:1005D000BC8B80E090E0A9E0B3E48D879E87AF8775
:1005E000B88B20E030E040E85FE32D833E834F830B
:1005F000588780E090E0A0E8B1E489879A87AB87CC
:10060000BC8729833A834B835C830E94F4010E9458
:1006100049000E949C0080E090E0A0E0B0E0898F5B
:100620009A8FAB8FBC8F8D8B9E8BAF8BB88F92E2E6
:1006300097B9369A349BFECF65B1349A60938A019C
:1006400070E080E090E00E943008AB01BC01CE0178
:1006500001960E944402AD84BE84CF84D888C6012E
:10066000B5010E94DC079B01AC0181E065E0A901B6
:1006700023E030E00E94FE00C601B50120E030E03A
:1006800049E053E40E9478053B014C01209064004E
:10069000309065004090660050906700A201910183
:1006A0000E94D6059B01AC01698D7A8D8B8D9C8D46
:1006B0000E94A905698F7A8F8B8F9C8FC401B3012B
:1006C0000E94DC07AB0177FF03C0509541955F4F57
:1006D00081E061E023E030E00E94FE00C401B3014C
:1006E0002091600030916100409162005091630060
:1006F0000E94D6057B018C01698D7A8D8B8D9C8D36
:1007000020917001309171014091720150917301FB
:100710000E94D6059B01AC01C801B7010E94A90542
:100720007B018C01C401B3012D893E894F89588D0D
:100730000E947805A20191010E94D00620917401C7
:100740003091750140917601509177010E94D60554
:100750009B01AC01C801B7010E94A9057B018C0176
:100760006093800170938101809382019093830153
:10077000C601B50120E030E049E053E40E947C0767
:10078000181624F488B3807F896003C088B3807F03
:10079000866088BBC801B70120E030E040E753E441
:1007A0000E947C07181664F480E090E0A0E7B3E4B0
:1007B0008093800190938101A0938201B093830183
:1007C00060918001709181018091820190918301FB
:1007D00020E030E040E753EC0E94AC07882364F44B
:1007E00080E090E0A0E7B3EC8093800190938101DA
:1007F000A0938201B0938301609180017091810187
:1008000080918201909183010E94DC07AB0177FF08
:1008100003C0509541955F4F82E066E025E030E0EF
:100820000E94FE006091800170918101809182019F
:10083000909183010E94DC07CB0177FF03C0909564
:1008400081959F4F8D5D1BBC8ABD19BC88BD6D8A8B
:100850007E8A8F8A988EEBCEA0E0B0E0E2E3F4E0EF
:100860000C94B20ADC012B01FA019C91923008F43D
:1008700039C1EB018881823008F433C1943069F4C6
:10088000843009F02FC111969C9111978981981796
:1008900009F428C1A8E6B0E025C1843009F421C1DB
:1008A0008230A9F4923009F01DC19A01AD0188E0AF
:1008B000EA010990AE01E90109929E018150C1F758
:1008C000E201898111969C918923818308C192302C
:1008D00009F407C112962D903C901397EB018A8181
:1008E0009B811496AD90BD90CD90DC901797EC80D5
:1008F000FD800E811F819101281B390BB90137FF43
:1009000004C066277727621B730B603271050CF0F9
:1009100061C0121613066CF537014801062E04C09B
:1009200096948794779467940A94D2F721E030E004
:1009300040E050E004C0220F331F441F551F6A954A
:10094000D2F721503040404050402E213F214023DB
:100950005123211531054105510521F021E030E0F9
:1009600040E050E079018A01E628F7280829192992
:100970003CC0232BD1F1260E371E35014601062E31
:1009800004C096948794779467940A94D2F721E0F0
:1009900030E040E050E004C0220F331F441F551FD9
:1009A0006A95D2F721503040404050402A213B21E7
:1009B0004C215D21211531054105510521F021E032
:1009C00030E040E050E059016A01A628B728C82865
:1009D000D9280BC0821593052CF01C01AA24BB2436
:1009E000650103C0EE24FF24870111969C91D2017A
:1009F00011968C91981709F445C0992339F0A801F4
:100A000097012A193B094C095D0906C0A601950109
:100A10002E193F09400B510B57FD08C0118233823C
:100A2000228224833583468357831DC081E08183DE
:100A30003382228288279927DC01821B930BA40B27
:100A4000B50B84839583A683B7830DC0220F331F14
:100A5000441F551F248335834683578382819381A6
:100A60000197938382832481358146815781DA01FE
:100A7000C9010197A109B1098F5F9F4FAF4FBF43D4
:100A800028F30BC0918333822282EA0CFB1C0C1DDD
:100A90001D1DE482F5820683178383E08083248111
:100AA00035814681578157FF1AC0C901AA2797FD92
:100AB000A095BA2F81709070A070B0705695479530
:100AC00037952795822B932BA42BB52B8483958365
:100AD000A683B78382819381019693838283DF010A
:100AE00001C0D201CD01CDB7DEB7E2E10C94CE0A50
:100AF000A0E2B0E0EEE7F5E00C94BE0A69837A83E9
:100B00008B839C832D833E834F835887E9E0EE2EB1
:100B1000F12CEC0EFD1ECE010196B7010E94CD090D
:100B20008E010F5E1F4FCE010596B8010E94CD09C0
:100B30008A8991E089278A8BC701B801AE01475E97
:100B40005F4F0E942C040E94F808A096E6E00C94E7
:100B5000DA0AA0E2B0E0EFEAF5E00C94BE0A69839D
:100B60007A838B839C832D833E834F835887F9E060
:100B7000EF2EF12CEC0EFD1ECE010196B7010E9466
:100B8000CD098E010F5E1F4FCE010596B8010E9460
:100B9000CD09C701B801AE01475E5F4F0E942C042A
:100BA0000E94F808A096E6E00C94DA0AA0E2B0E011
:100BB000ECEDF5E00C94B20A69837A838B839C8315
:100BC0002D833E834F835887CE010196BE01675F18
:100BD0007F4F0E94CD09CE010596BE016F5E7F4F0B
:100BE0000E94CD099985923088F089898230C8F0B9
:100BF000943019F4823051F404C0843029F49230D6
:100C000081F488E690E0C6C0923049F420E09A85ED
:100C10008A89981321E02A87CE010996BBC08230C9
:100C200049F420E09A858A89981321E02A8BCE0125
:100C30004196B0C02D843E844F8458886D887E884C
:100C40008F88988CEE24FF248701AA24BB24650199
:100C500040E050E060E070E0E0E0F0E0C101817071
:100C60009070892BE9F0E60CF71C081D191D9A01FC
:100C7000AB012A0D3B1D4C1D5D1D80E090E0A0E006
:100C8000B0E0E614F7040805190520F481E090E0CF
:100C9000A0E0B0E0BA01A901480F591F6A1F7B1FED
:100CA000AA0CBB1CCC1CDD1C97FE08C081E090E0A8
:100CB000A0E0B0E0A82AB92ACA2ADB2A3196E0329D
:100CC000F10549F0660C771C881C991C56944794D2
:100CD00037942794C3CFFA85EA892B893C898B8581
:100CE0009C85280F391F2E5F3F4F17C0CA018170A6
:100CF0009070892B61F016950795F794E79480E042
:100D000090E0A0E0B0E8E82AF92A0A2B1B2B7695A0
:100D10006795579547952F5F3F4F77FDE7CF0CC0FD
:100D2000440F551F661F771F17FD4160EE0CFF1C17
:100D3000001F111F21503040403090E0590790E0D3
:100D4000690790E4790760F32B8F3C8FDB01CA01C0
:100D50008F779070A070B07080349105A105B105B7
:100D600061F447FD0AC0E114F1040105110529F001
:100D7000405C5F4F6F4F7F4F40781A8EFE1711F027
:100D800081E08A8F4D8F5E8F6F8F78A383E0898F8C
:100D9000CE0149960E94F808A096E2E10C94CE0A92
:100DA000A8E1B0E0E6EDF6E00C94BA0A69837A8334
:100DB0008B839C832D833E834F835887B9E0EB2E32
:100DC000F12CEC0EFD1ECE010196B7010E94CD095B
:100DD0008E010F5E1F4FCE010596B8010E94CD090E
:100DE0002985223008F47EC03989323010F4B801E8
:100DF0007CC08A859A8989278A87243011F022301D
:100E000031F4231709F06EC068E670E06EC034302C
:100E100039F41D861E861F86188A1C861B8604C010
:100E2000323021F484E08987B7015FC02B853C858F
:100E30008B899C89281B390B3C872B87ED84FE848A
:100E40000F851889AD88BE88CF88D88CEA14FB043A
:100E50000C051D0540F4EE0CFF1C001F111F215056
:100E600030403C872B8720E030E040E050E080E0DD
:100E700090E0A0E0B0E460E070E0EA14FB040C0550
:100E80001D0540F0282B392B4A2B5B2BEA18FB0859
:100E90000C091D09B695A79597958795EE0CFF1C33
:100EA000001F111F6F5F7F4F6F31710531F7DA013E
:100EB000C9018F779070A070B07080349105A10542
:100EC000B10561F427FD0AC0E114F1040105110523
:100ED00029F0205C3F4F4F4F5F4F20782D873E8792
:100EE0004F87588BBE01675F7F4FCB010E94F80888
:100EF0006896EAE00C94D60AA8E1B0E0E2E8F7E0F0
:100F00000C94BE0A69837A838B839C832D833E83F2
:100F10004F83588789E0E82EF12CEC0EFD1ECE01A0
:100F20000196B7010E94CD098E010F5E1F4FCE01C1
:100F30000596B8010E94CD098985823040F08989E3
:100F4000823028F0C701B8010E94450A01C08FEF26
:100F50006896E6E00C94DA0AA8E1B0E0E2EBF7E08C
:100F60000C94BE0A69837A838B839C832D833E8392
:100F70004F83588789E0E82EF12CEC0EFD1ECE0140
:100F80000196B7010E94CD098E010F5E1F4FCE0161
:100F90000596B8010E94CD098985823040F0898983
:100FA000823028F0C701B8010E94450A01C081E0E3
:100FB0006896E6E00C94DA0AACE0B0E0E2EEF7E026
:100FC0000C94C20A69837A838B839C83CE01019639
:100FD000BE016B5F7F4F0E94CD098D81823061F130
:100FE000823050F1843021F48E81882351F12EC05B
:100FF0002F81388537FD20C06E812F3131051CF0DF
:101000006623F9F023C08EE190E0821B930B2985C3
:101010003A854B855C8504C056954795379527954D
:101020008A95D2F76623B1F0509540953095219579
:101030003F4F4F4F5F4F0EC020E030E040E050E0A8
:1010400009C02FEF3FEF4FEF5FE704C020E030E033
:1010500040E050E8B901CA012C96E2E00C94DE0AA7
:10106000A8E0B0E0E6E3F8E00C94BA0A7B018C015A
:10107000611571058105910519F482E0898360C0CD
:1010800083E089838EE1C82ED12CDC82CB82ED8275
:10109000FE820F831887C801B7010E94A908FC01CE
:1010A0003197F7FF3BC0222733272E1B3F0B5701F9
:1010B0006801022E04C0D694C794B794A7940A94EA
:1010C000D2F740E050E060E070E081E090E0A0E026
:1010D000B0E004C0880F991FAA1FBB1F2A95D2F742
:1010E0000197A109B1098E219F21A023B123009767
:1010F000A105B10521F041E050E060E070E04A292F
:101100005B296C297D294D835E836F8378878EE10F
:1011100090E08E1B9F0B9C838B8312C0309781F0D5
:101120000E2E04C0EE0CFF1C001F111F0A94D2F7F4
:10113000ED82FE820F831887CE1ADF0ADC82CB8213
:101140001A82CE0101960E94F8082896EAE00C94D3
:10115000D60AEF92FF920F931F937B018C0180E0E0
:10116000E81680E0F80681E0080780E0180788F4B8
:101170008FEFE816F1040105110531F028F088E041
:1011800090E0A0E0B0E017C080E090E0A0E0B0E028
:1011900012C080E0E81680E0F80680E0080781E0F1
:1011A000180728F088E190E0A0E0B0E004C080E1FA
:1011B00090E0A0E0B0E020E230E040E050E0281B0A
:1011C000390B4A0B5B0B04C016950795F794E7940F
:1011D0008A95D2F7F701E059FF4F8081281B31092A
:1011E00041095109C9011F910F91FF90EF90089596
:1011F000DF92EF92FF920F931F93FC01E480F58042
:1012000006811781D1808081823048F480E090E0AF
:10121000A0E1B0E0E82AF92A0A2B1B2BA5C08430F4
:1012200009F49FC0823021F4EE24FF24870105C019
:10123000E114F1040105110519F4E0E0F0E096C0B5
:10124000628173819FEF623879070CF05BC022E8FE
:101250003FEF261B370B2A3131052CF020E030E020
:1012600040E050E02AC0B801A701022E04C07695E4
:101270006795579547950A94D2F781E090E0A0E0F2
:10128000B0E004C0880F991FAA1FBB1F2A95D2F790
:101290000197A109B1098E219F21A023B1230097B5
:1012A000A105B10521F081E090E0A0E0B0E09A0155
:1012B000AB01282B392B4A2B5B2BDA01C9018F7725
:1012C0009070A070B07080349105A105B10539F41B
:1012D00027FF09C0205C3F4F4F4F5F4F04C0215C88
:1012E0003F4F4F4F5F4FE0E0F0E02030A0E03A0783
:1012F000A0E04A07A0E45A0710F0E1E0F0E079012D
:101300008A0127C06038710564F5FB01E158FF4F81
:10131000D801C7018F779070A070B07080349105AC
:10132000A105B10539F4E7FE0DC080E490E0A0E02E
:10133000B0E004C08FE390E0A0E0B0E0E80EF91E5A
:101340000A1F1B1F17FF05C016950795F794E79412
:10135000319687E016950795F794E7948A95D1F72B
:1013600005C0EE24FF248701EFEFF0E06E2F6795B4
:1013700066276795902F9F77D794DD24D7948E2F7B
:101380008695492F462B582F5D29B701CA011F9119
:101390000F91FF90EF90DF900895FC01DB014081F9
:1013A00051812281622F6F7770E0221F2227221F36
:1013B0009381892F880F822B282F30E0991F99273E
:1013C000991F11969C93119721153105A9F5411587
:1013D00051056105710511F482E037C082E89FEF85
:1013E00013969C938E9312979A01AB0167E0220F9C
:1013F000331F441F551F6A95D1F783E08C930DC0AE
:10140000220F331F441F551F12968D919C911397E5
:10141000019713969C938E931297203080E03807A3
:1014200080E0480780E4580758F314962D933D93C5
:101430004D935C93179708952F3F310579F441152B
:1014400051056105710519F484E08C93089564FFDA
:1014500003C081E08C9312C01C9210C02F57304003
:1014600013963C932E93129783E08C9387E0440F5E
:10147000551F661F771F8A95D1F7706414964D9398
:101480005D936D937C93179708951F93DC01FB0187
:101490009C91923008F447C08081823008F443C0A8
:1014A000943051F411961C91843099F58181682F04
:1014B00070E0611B71093FC0843021F0923031F43B
:1014C0008230B9F18181882389F12DC011961C9158
:1014D00011978230F1F081811817D9F412962D916D
:1014E0003C911397828193818217930794F0281778
:1014F0003907BCF014968D919D910D90BC91A02D53
:101500002481358146815781281739074A075B07AF
:1015100018F4112341F00AC082179307A407B507F6
:1015200040F4112319F061E070E005C06FEF7FEF28
:1015300002C060E070E0CB011F910895AA1BBB1BA5
:1015400051E107C0AA1FBB1FA617B70710F0A61BC3
:10155000B70B881F991F5A95A9F780959095BC01E4
:10156000CD0108952F923F924F925F926F927F929A
:101570008F929F92AF92BF92CF92DF92EF92FF92A3
:101580000F931F93CF93DF93CDB7DEB7CA1BDB0B4F
:101590000FB6F894DEBF0FBECDBF09942A883988F4
:1015A00048885F846E847D848C849B84AA84B984FB
:1015B000C884DF80EE80FD800C811B81AA81B98107
:1015C000CE0FD11D0FB6F894DEBF0FBECDBFED011B
:0615D0000895F894FFCF1E
:1015D600000090406F12833A0000000000000000F7
:1015E60000010202030303030404040404040404C4
:1015F6000505050505050505050505050505050595
:101606000606060606060606060606060606060674
:101616000606060606060606060606060606060664
:101626000707070707070707070707070707070744
:101636000707070707070707070707070707070734
:101646000707070707070707070707070707070724
:101656000707070707070707070707070707070714
:1016660008080808080808080808080808080808F4
:1016760008080808080808080808080808080808E4
:1016860008080808080808080808080808080808D4
:1016960008080808080808080808080808080808C4
:1016A60008080808080808080808080808080808B4
:1016B60008080808080808080808080808080808A4
:1016C6000808080808080808080808080808080894
:1016D6000808080808080808080808080808080884
:00000001FF
