:100000000C942A000C943C000C943C000C943C0092
:100010000C943C000C943C000C943C000C943C0070
:100020000C943C000C943C000C943C000C943C0060
:100030000C943C000C943C000C943C000C943C0050
:100040000C943C000C943C000C943C000C943C0040
:100050000C943C0011241FBECFE5D4E0DEBFCDBF21
:1000600010E0A0E6B0E001C01D92A737B107E1F7AC
:100070000E9404020C94C6020C94000083E397E0F3
:10008000FC013197F1F7A898A99840E345BBAA9ADB
:1000900020E034E2F9013197F1F7AA98FC01319799
:1000A000F1F7A898A99845BBAA9AF9013197F1F7F9
:1000B000AA98FC013197F1F7A898A99845BBAA9A8C
:1000C000F9013197F1F7AA980197F1F7A898A99843
:1000D00080E285BBAA9AC9010197F1F7AA98089511
:1000E00095B39F7095BB25B3982F907F922B95BBAE
:1000F000A898A998AA9A20E034E2F9013197F1F77B
:10010000AA9895B39F7095BB95B38295807F982BE5
:1001100095BBA898A998AA9AC9010197F1F7AA983E
:10012000089583E397E00197F1F788E20E94700059
:1001300081E00E94700086E00E9470008EE00E94C4
:10014000700080E80E947000089595B39F7095BB81
:1001500025B3982F907F922B95BBA89AA998AA9A1D
:1001600020E034E2F9013197F1F7AA9895B39F7036
:1001700095BB95B38295807F982B95BBA89AA9983B
:10018000AA9AC9010197F1F7AA98089580E80E94F8
:1001900070000895CF93DF93EC0103C00E94A50087
:1001A000219688818823D1F7DF91CF9108958230FD
:1001B00069F0833018F48130A9F405C0833049F028
:1001C000843081F40BC0862F815805C0862F81545E
:1001D00002C0862F8D560E9470000895862F8D5282
:1001E0000E94700008950F931F93CF93DF938A01AD
:1001F000E901882311F0662319F40E94C60002C0A9
:100200000E94D700C530D10571F4C80160E177E2E2
:100210000E94B202CB01C09690936300809362006B
:100220000E94A50005C0C430D10511F080E016C0C1
:10023000C80168EE73E00E94B202CB0160936400D3
:10024000909365006AE070E00E94B202C0969093BD
:100250007400809373000E94A50081E0C330D10533
:1002600021F0813011F080E016C0C80164E670E032
:100270000E94B202CB0160936400909365006AE033
:1002800070E00E94B202C09690936F0080936E005F
:100290000E94A50081E0C230D10521F0813011F02B
:1002A00080E016C0C8016AE070E00E94B202CB0193
:1002B00060936400909365006AE070E00E94B2026F
:1002C000C09690936A00809369000E94A50081E027
:1002D000C130D10511F0813061F4C8016AE070E0ED
:1002E0000E94B202C09690937200809371000E94A7
:1002F000A50026971CF085E40E94A500DF91CF9110
:100300001F910F91089584B3876F84BB85B3807864
:1003100085BB089598B3907F8F70892B88BB089513
:1003200088B3807F866088BB089588B3807F8960AA
:1003300088BB089588B38F6088BB08951EBC9FEF6B
:100340009DBD81E08CBD1BBC9ABD19BC98BD17BC7E
:1003500096BD81EA8FBD8DE08EBD08951ABA1BBA95
:10036000089587B38F6087BB88B3807F88BB81B3D4
:10037000806381BB82B3806382BB089587B38F6043
:1003800087BB88B3807F88BB81B3806381BB82B326
:10039000806382BB84B3876F84BB85B3807885BB61
:1003A0001ABA1BBA089516B880E287B980E888B9EE
:1003B00086E886B908958770806287B9369A349B3B
:1003C000FECF85B1349A08951BBC8ABD19BC68BDA7
:1003D0000895F8940E94BE0116B880E287B980E8BB
:1003E00088B986E886B91EBC9FEF9DBD81E08CBDB3
:1003F0001BBC9ABD19BC98BD17BC96BD81EA8FBDC8
:100400008DE08EBD789408952F923F924F925F9227
:100410006F927F928F929F92AF92BF92CF92DF9214
:10042000EF92FF920F931F93DF93CF9300D000D0F2
:10043000CDB7DEB70E94E9010E943E000E94910004
:10044000AA24BB24EE24FF2422243324442455244C
:10045000662477248824992400E010E0CC24DD244D
:100460001A82198222E227B9369A349BFECF45B10F
:10047000349A4093700081E061E050E023E030E086
:100480000E94F300E09170004E2F50E04C58504015
:100490005C834B83CA018E199F09BC01A4E1B0E0C3
:1004A0006A9FC0016B9F900D7A9F900D11246CED97
:1004B00070E0469F9001479F300D569F300D1124EC
:1004C000820F931F97012A0D3B1D220D331D240D12
:1004D000351D260D371D280D391D200F311F2C0D00
:1004E0003D1DA981BA812A0F3B1FA90175E0440F68
:1004F000551F7A95E1F7220F331F421B530B840FD0
:10050000951F909361008093600064EF71E00E94FA
:10051000B20260936B0070936C0060936600ED38DC
:1005200020F088B3807F896003C088B3807F8660B5
:1005300088BB2B813C8137FF03C0309521953F4F0D
:10054000862F8C591BBC8ABD19BC88BDBA82A98272
:10055000C8018401430132012101170156017901CB
:100560006C0180CFAA1BBB1B51E107C0AA1FBB1F98
:10057000A617B70710F0A61BB70B881F991F5A952F
:10058000A9F780959095BC01CD010895F894FFCF0F
:00000001FF
